:020000040000fa
:080000000002040000000000f2
:020000040000fa
:100400004f852000807f240000018800000000004c
:10041000050007000c00070016060200000000009f
:100420000040da000000fe004440a9000000200067
:100430000000e0000300320000002000a00188005e
:100440004440a80000000600809220000100200027
:100450001600370062004000e080480091018800eb
:100460009001ba0062004000e080480091018800dd
:100470009002ba0062004000e08048000002eb00f9
:100480006028e10005003a008301e900070033001d
:10049000038009000059eb00040037006128e100e7
:1004a000010032000082eb00050007009101880086
:1004b0001001ba000200e000e6ff3a00000005006b
:1004c000910188008002780062004000e0804800ce
:1004d0003559ba008301e900080032002559ba00f5
:1004e0008301e900050032000400e000f4ff32005f
:1004f00015d9ba008301e900f1ff3a0000000600b7
:10050000889fbe008a9fbe00010578000100e000c0
:100510000400350008003c000000e000200032002c
:100520000500370060001000e080180002003b006a
:1005300001f02c001a0037000004be006011b80062
:100540006b0920000982cf00020039000882cf0029
:100550000441b000694252000e00320008003b0026
:1005600082817100610164008904d1000884d30094
:100570008b05e8000442e800f9ff3a000500370067
:100580000804440089844c008b05e9000442e9001a
:10059000fbff3a00100107000af0a70001f0a000dd
:1005a0004f05be004f04be0000000600889fbe003d
:1005b0008a9fbe008c1f78002d0107003401330094
:1005c00003866c006450e100240032006420e100e6
:1005d000270032006150e100220032006120e1007a
:1005e000210032008b854200eb07b1000134b800d6
:1005f000003ab8000804420089844a00013ab80071
:100600000030b8008880400009014a00040033002f
:100610000000400081804800020149008b05e9008c
:10062000c909dd00830170000100320013002000c1
:10063000c814de004814dd004709de001200b200d5
:10064000c808de0008847000e300070001f0a10084
:100650000cf0a70001f0a000160137006120e100b6
:10066000180132000801be000200be00f7ff37008b
:100670006150e100fcff3a0012013700f4ff2f0047
:10068000130137000001eb002c01070004003200c9
:100690000200200003f8230001f0a7006400070017
:1006a000000006000001be004b0107000470a70017
:1006b00003f0a1006509b100160032000d003500fd
:1006c0006828e10006003500f0ff2f00f1ff270049
:1006d0000300e00013003b000100280000000500bb
:1006e00000004000818048008502e900fcff3a00dc
:1006f00008003700f88f420002003c008000eb0049
:10070000000005008100d1000080d3008502e800d0
:10071000fcff3a000300e00002003b006000100014
:10072000e080180000000600889fbe008a9fbe007f
:100730008c1f7800ce000700d500330003866c00c4
:100740006450e1002e0032006420e10033003200ea
:100750006150e1002f0032006120e10031003200e1
:1007600085855500eb07b000090020000804200033
:10077000050037000804440089844c000a00310059
:100780000603430087834b000001530081815b0017
:10079000f8ff33000203be000800a0000804440074
:1007a00089844c00f6ff3900c639dd0083017300ef
:1007b00001003200130020008904d1000884d30016
:1007c0000998a300050032000800a7000300a0005c
:1007d0008904d1000884d3008b05e8008904d10086
:1007e0000884d3000001eb000281d2007a000700e8
:1007f00001f0a1000cf0a70001f0a000ad0037004f
:100800006420e100af0032000801be000200be001b
:10081000f7ff37006120e100aa0032006000b80055
:10082000f3ff37000000200001f82700f0ff370039
:1008300003f0a200889fbe008a9fbe008c1f780034
:100840008b000700920033006450e1004f0032003b
:100850006420e1005200320003826c0007003b007c
:100860000905d0000306d000820f54000c065d007d
:100870000200390002003200890178000306780086
:100880008582550004003d000003fd008103fd004a
:100890008502ea008b854200840f720002003b0053
:1008a00060001000e08018006011b8000005eb0047
:1008b0007a28e1000a00390006007800c75ddd00f3
:1008c000f707b200878075002d0037008281710024
:1008d0000a017800610560008180d1000080d300aa
:1008e0008502e900f9ff3b000604400087844800c8
:1008f00002003b0060041400e0841c000988a3008f
:10090000070032008a8171008281710061016400f8
:100910008904d1000884d3008b05e8001700370054
:100920000978a30013003a000b00e0001300340024
:100930008b05e9000804440089844c000a447400d3
:100940000978a3000d003a000b00e0000700340016
:100950008b05e9000804440089844c0001003a003a
:100960000b0020000978a300f7ff32000001eb0024
:1009700002003700828171000a017800160007002a
:100980000cf0a70001f0a0004a0037006420e1004d
:1009900002003a00838f6c004a0033000801be0059
:1009a0000200be004300370014002000480037005a
:1009b0000001eb006100070004003200020020008b
:1009c00003f8230001f0a6009aff070000000600cc
:1009d000040020003e0037008100200061805500a7
:1009e0000b003d000b00200061fe2f000100e10024
:1009f0001d00340082817100610164008904d1000e
:100a00000884d3000000e800faff3a0071002000db
:100a10006100640003007000020060000900320001
:100a200061044400e0844c000988a5000500320000
:100a30008b05e8006808e10002003a008904d10053
:100a40000884d300f20f20000258e10005003d00a9
:100a5000c75ddd00f907b2008980750008007800e5
:100a6000000006000bf827008b007800000005004e
:100a70000004be00580007000003be000405be00cd
:100a80000200be0054000700844f750000000600fd
:100a90000200be006450e100050036006420e10061
:100aa000020036000968a30001003a000800be00f9
:100ab0000160a0004f0678004f05be004f04be0045
:100ac00000000600f0ff2f00f1ff2700f9ff3700bc
:100ad000889fbe008a9fbe00841f7800e4ff070045
:100ae0004f00780011003300f0ff2f00838f6c005f
:100af00006003b00040565000a00a7000800370057
:100b000009f0a6001000200008003700820f5400f2
:100b1000838f5c00030039001000200001003e00bc
:100b20000000200009f0a7000000ea004f05be0009
:100b30004f04be000000e00000000600889fbe00d9
:100b40008a9fbe000003be002300070085057800d1
:100b500082815200020020006220e10004003a007d
:100b6000f307b100040035007718e10004003500f8
:100b70000600be00140037006000b8000f00370008
:100b8000f50f2000faff2f008502d1000a85d3005f
:100b90008301e900fcff3b008184620000046500e2
:100ba000890f7400f2ff32008582ea000a85ea00ac
:100bb000818462000004650087ff070007f0a7003a
:100bc00001f0a0000081eb000200e0004f05be0034
:100bd0004f04be0000000600c70ade00f107b200a5
:100be000f50fb20008003200e1cf420002003200ef
:100bf0000170a00024000500810f70000100320088
:100c00000408050044000500810f700002003a004e
:100c1000140005008502e9000000400081c0480082
:100c2000fcff3b000170a000240005001a00fa0040
:100c300090022000303a880044c7bf00f043b20061
:100c400044e7b700417420009140780000ceb30023
:100c500000c0600044e7b7000000eb00403a8800a5
:100c60000068290081c12400300f9800410f9800ce
:100c70001200200081072000a0092000337420000a
:100c8000814978008049780082497800120020006c
:100c90006104200070052000237420008149780041
:100ca000804978008249780043c7bf000047b200fe
:100cb000f04f5000fcff3a0042c7bf000042b200b4
:100cc0000004e000fcff32001d00070000012000ce
:100cd000100f9800d0cc2c00c1dc230070079800c6
:100ce000010f9800d0cc2c00c1e4230050079800dd
:100cf000610798007e0090008e0890004d0007006c
:100d0000200798005e009000ee0090004900070068
:100d1000ae0090001e0090000088b900000f78001f
:100d20001e00780025010700300798004107980051
:100d30006000b8003007980041079800ffff3700b7
:100d40000000fa00cda2a900cde2a900cdc2a90001
:100d5000d1a2a800d1e2a800d1c2a800d302a80065
:100d6000d322a800e402a900e422a900e802a90015
:100d7000e822a9000000eb00804288000000eb00a0
:100d8000904288000080fa00000006000200fa008d
:100d9000d5c2bf00614060000004e00009003a00d5
:100da000804280000000e80080428800804280008d
:100db000ec0f500007003a0010002000000f7800f0
:100dc000040037000000eb00804288000000eb00c8
:100dd000000f78001e0078000080fa000000060076
:100de0000200fa00d5c2bf00624060000004e000cb
:100df00009003a00904280000000e800904288001c
:100e000090428000ec0f500007003a0010002000d4
:100e1000000f7800040037000000eb0090428800cb
:100e20000000eb00000f78001e0078000080fa0040
:100e3000000006001800fa00889fbe00100f9800fe
:100e4000210f980000002800010020007007980082
:100e5000010f98006000b8005007980061079800e3
:100e60006000b80030079800410798006000b800a3
:100e700010079800210798000000eb00000f780091
:100e80007e0090008e0890009dfd07001e099000d6
:100e9000ae099000c5fd0700300798004107980093
:100ea0006011b8001e089000ae089000f3fd070026
:100eb0000000e00001003d00560037003e009000b9
:100ec000ce009000effd0700f6fd070050079800e8
:100ed000610798005e009000ee00900088fd07001a
:100ee00002002000030024000ffe070010079800f6
:100ef000210798001e049000ae0490001e00900090
:100f0000ae009000dffd07000001be000800be003b
:100f100047fe07000001be0046fe0700e1fd070096
:100f2000000f78005e009000ee00900074fd070056
:100f30000001be003e009000ce0090003cfe070085
:100f400010079800210798000200200003f02300fa
:100f50001e009000ae009000c8fd07000000e000f9
:100f600012003c000040eb00705798000200200087
:100f700003f023001e009000ae0090008afe0700e0
:100f80000000e000010032000200370010c0b30092
:100f9000705798007e5090000004a2000004e0000a
:100fa0000b003a001e00e000090032005e009000d5
:100fb000ee00900052fd07000200200003f823001d
:100fc0001cfe0700b7fd0700500798006107980056
:100fd0005e019000ee0190007e0090008e0890006f
:100fe000800f5100818f5900700035007e00900005
:100ff0008e08900042fd07000200200003f8230045
:101000000bfe0700a7fd0700500798006107980036
:10101000660037003e009000ce00900064fe07009e
:10102000a0fd070050079800610798005e0090003f
:10103000ee00900032fd07003e019000ce019000ce
:1010400063fe07000000e00001003a0009003700dd
:101050005e009000ee00900029fd070002002000d5
:1010600003f82300f2fd07008efd070050079800eb
:10107000610798005e009000ee00900020fd0700e0
:101080000200200003002400a7fd070010079800bd
:10109000210798001e049000ae0490001e009000ee
:1010a000ae00900077fd07000001be000800be0002
:1010b000dffd07000001be00defd070079fd07002f
:1010c000000f78005e009000ee0090000cfd07001d
:1010d0000001be003e009000ce009000d4fd07004d
:1010e00010079800210798000200200003f0230059
:1010f0001e009000ae00900060fd07000000e000c0
:1011000012003c000040eb006057980002002000f5
:1011100003f023001e009000ae00900022fe0700a6
:101120000000e000010032000200370010c0b300f0
:10113000605798006e5090000004a2000004e00088
:101140000b003a001e00e000090032005e00900033
:10115000ee009000eafc07000200200003f82300e4
:10116000b4fd07004ffd0700500798006107980085
:101170007e0090008e08900060011000e081180051
:101180005e009000ee009000800f5100818f5900aa
:10119000060034007e0090008e0890006000100071
:1011a000e080180050079800610798005e009000ea
:1011b0004f04be000080fa00000006001200fa0092
:1011c000000f9800000020000180230060079800b5
:1011d00071079800000020001100200040079800cf
:1011e0005107980000002800010020002007980007
:1011f000310798006000b800008fbe000e08900014
:101200006101b9002e009000be009000800f5100d7
:10121000818f5900040035004e0090008e08900028
:1012200000805000000f98000e089000cf80de0074
:10123000b3fc07006e019000fe019000dbfc07008c
:10124000008fbe001e00be000080fa0000000600f5
:020000040000fa
:0200000401f009
:04000800ffff0000f6
:020000040000fa
:0200000401f009
:04000c00f8ff0000f9
:020000040000fa
:0200000401f009
:040010007bff000072
:020000040000fa
:0200000401f009
:040014007fff00006a
:020000040000fa
:100008003009000030090000300900003009000004
:1000180030090000300900003009000030090000f4
:1000280030090000300900003009000030090000e4
:1000380030090000300900003009000030090000d4
:020000040000fa
:020000040000fa
:101250005008000004000000000000000000000032
:020000040000fa
:041260000000fe008c
:00000001FF
