:020000040000fa
:080000000002040000000000f2
:020000040000fa
:100400004f852000807f240000018800000000004c
:10041000050007000c000700e003020000000000d8
:100420000040da000000fe004440a90080002000e7
:100430000000e0000300320000002000a00188005e
:100440004440a80000000600605220000100200087
:100450001600370062004000e080480091018800eb
:100460009001ba0062004000e080480091018800dd
:100470009002ba0062004000e08048000002eb00f9
:100480006028e10005003a008301e900070033001d
:10049000038009000059eb00040037006128e100e7
:1004a000010032000082eb00050007009101880086
:1004b0001001ba000200e000e6ff3a00000005006b
:1004c000910188008002780062004000e0804800ce
:1004d0003559ba008301e900080032002559ba00f5
:1004e0008301e900050032000400e000f4ff32005f
:1004f00015d9ba008301e900f1ff3a0000000600b7
:10050000889fbe008a9fbe008c1f7800590007009c
:100510006000330003866c006450e1002e0032005e
:100520006420e100330032006150e1002f0032000e
:100530006120e1003100320085855500eb07b000f5
:1005400009002000080420000500370008044400ca
:1005500089844c000a0031000603430087834b0066
:100560000001530081815b00f8ff33000203be00ed
:100570000800a0000804440089844c00f6ff3900fc
:10058000c639dd0083017300010032001300200032
:100590008904d1000884d3000998a3000500320023
:1005a0000800a7000300a0008904d1000884d3003c
:1005b0008b05e8008904d1000884d3000001eb001a
:1005c0000281d2004300070001f0a1000cf0a70057
:1005d00001f0a000380037006420e1003a0032004a
:1005e0000801be000200be00f7ff37006120e100f5
:1005f000350032006000b800f3ff37000000200033
:1006000001f82700f0ff37000001be005700070087
:100610000470a70003f0a10003f8a30013003a0040
:100620006509b10010003200090035006928e100b9
:100630000200350001002800000005000000400015
:10064000818048008502e900fcff3a0000000600b6
:10065000f88f4200050035008100d1000080d300f2
:100660008502e800fcff3a00000006008000eb0075
:10067000000005000004be003c0007000003be00af
:100680000405be000200be0038000700844f75005c
:10069000000006000200be006450e10005003600c4
:1006a0006420e100020036000968a30001003a005e
:1006b0000800be000160a0004f0678004f05be0094
:1006c0004f04be0000000600f0ff2f00f1ff2700de
:1006d000f9ff370081002000618055000b003d00cc
:1006e0000b00200061fe2f000100e1001d0034001e
:1006f00082817100610164008904d1000884d30003
:100700000000e800faff3a00710020006100640078
:100710000300700002006000090032006104440020
:10072000e0844c000988a500050032008b05e80034
:100730006808e10002003a008904d1000884d3006f
:10074000f20f20000258e10005003d00c75ddd000a
:10075000f907b200898075000800780000000600e3
:100760000bf827008b00780000000500c70ade00a8
:10077000f107b200f50fb20008003200e1cf4200ed
:10078000020032000170a00024000500810f7000fb
:10079000010032000408050044000500810f7000cc
:1007a00002003a00140005008502e9000000400044
:1007b00081c04800fcff3b000170a0002400050040
:1007c0001200fa0090022000303a880044c7bf00af
:1007d000f043b20044e7b700417420009140780034
:1007e00000ceb30000c0600044e7b7000000eb009b
:1007f000403a88000068290081c124006007980001
:10080000710798006e019000fe019000000020002a
:1008100001f823003aff07004007980051079800ad
:100820000000200001f02300200798003107980005
:100830004e019000de0190002e009000be0090005e
:100840002fff070070ff0700008fbe00120020007e
:1008500081072000a009200033742000814978001e
:10086000804978008249780012002000610420004d
:1008700070052000237420008149780080497800a9
:100880008249780043c7bf000047b200f04f5000d4
:10089000fcff3a0042c7bf000042b2000004e00083
:1008a000fcff32001c00070010298400000f980094
:1008b000112984000e089000810f500003003a00b7
:1008c00023298400030f98000600370021298400a3
:1008d0000e089000810f500002003a001029840099
:1008e000000f98000e0890006140600061406000b9
:1008f0004501dd00112d200091407800f0cdb300be
:1009000000c0600002407000d1e2b7001e00be00cf
:100910003e000700e6ff37000000fa00cda2a90064
:10092000cde2a900cdc2a900d1a2a800d1e2a800c1
:10093000d1c2a800d302a800d322a800e402a900d3
:10094000e422a900e802a900e822a9000000eb00c7
:10095000804288000000eb00904288000080fa008e
:10096000000006000200fa00d5c2bf00614060002e
:100970000004e00009003a00804280000000e80026
:100980008042880080428000ec0f500007003a004f
:1009900010002000000f7800040037000000eb007a
:1009a000804288000000eb00000f78001e007800f5
:1009b0000080fa00000006000200fa00d5c2bf0065
:1009c000624060000004e00009003a0090428000ac
:1009d0000000e8009042880090428000ec0f500038
:1009e00007003a0010002000000f780004003700d4
:1009f0000000eb00904288000000eb00000f780040
:100a00001e0078000080fa0000000600f03fb100f0
:100a10000180b10006003500ee030900000000006f
:100a2000403fb1000180b100fbff3d001000b0006d
:100a3000203fb000020035000080090000000000e7
:040a400000000600ac
:020000040000fa
:0200000401f009
:04000800ffff0000f6
:020000040000fa
:0200000401f009
:04000c00f8ff0000f9
:020000040000fa
:0200000401f009
:040010007bff000072
:020000040000fa
:0200000401f009
:040014007fff00006a
:020000040000fa
:100008002e0500002e0500002e0500002e0500001c
:100018002e0500002e0500002e0500002e0500000c
:100028002e0500002e0500002e0500002e050000fc
:100038002e0500002e0500002e0500002e050000ec
:020000040000fa
:020000040000fa
:080a44000100000000000000a9
:020000040000fa
:100a4c00500800000400000000000000000000003e
:020000040000fa
:040a5c000000fe0098
:00000001FF
